:020000040800F2
:10000000E0460020990100082D2800089B200008E8
:10001000292800087F070008CD2B000800000000F9
:1000200000000000000000000000000001010008C6
:10003000830700080000000045010008912800081F
:10004000B3010008B3010008B3010008B3010008C0
:10005000B3010008B3010008B3010008B3010008B0
:10006000B3010008B3010008B3010008B3010008A0
:10007000B3010008B3010008B3010008B301000890
:10008000B3010008B3010008B3010008B301000880
:10009000B3010008B3010008B3010008B301000870
:1000A000B3010008B3010008B3010008B301000860
:1000B000B30100087D290008B3010008B30100085E
:1000C000B3010008B3010008B3010008B301000840
:1000D000B3010008B3010008B3010008B301000830
:1000E000B3010008B3010008B3010008DFF80CD029
:1000F00000F098FA00480047455D0008E0460020FF
:10010000224B19680868B0E8F00F80F30988BFF344
:100110006F8F4FF0000080F311884EF00D0E704786
:100120000000000006480068006880F3088862B696
:1001300061B6BFF34F8FBFF36F8F00DF00BF00BF0B
:1001400008ED00E0EFF30980BFF36F8F0F4B1A68E3
:1001500020E9F00F106008B54FF0500080F31188CF
:10016000BFF34F8FBFF36F8F07F0CCFD4FF0000050
:1001700080F31188BDE8084019680868B0E8F00FFE
:1001800080F30988BFF36F8F704700BF1001002014
:10019000EFF3058070470000064880470648004797
:1001A000FEE7FEE7FEE7FEE7FEE7FEE7FEE7FEE727
:1001B000FEE7FEE725290008ED000008202A04DB01
:1001C000203A21FA02F00021704721FA02F3D040D0
:1001D000C2F12002914008431946704740EA0103EA
:1001E0009B0703D009E008C9121F08C0042AFAD2ED
:1001F00003E011F8013B00F8013B521EF9D27047B1
:10020000D2B201E000F8012B491EFBD27047002258
:10021000F6E710B513460A4604461946FFF7F0FF05
:10022000204610BD30B50B46014600202022012497
:1002300009E021FA02F59D4205D303FA02F5491BB4
:1002400004FA02F52844151EA2F10102F1DC30BDCA
:100250002DE9F05F0546002092469B4688460646FB
:10026000814640241BE02846414647462246FFF788
:10027000A5FF53465A46C01A914110D3114618465D
:10028000224600F0E1F92D1A67EB01084F4622469D
:100290000120002100F0D8F917EB00094E41201E83
:1002A000A4F10104DFDC484631462A464346BDE856
:1002B000F09F2DE9FE4F804681EA0300C00F0C46F7
:1002C000009021F0004123F00045B8EB0200A94165
:1002D00005D24046214690461C460B46024623F076
:1002E0000040104347D0270DC7F30A00C3F30A515B
:1002F0000290401A019040286BDAC3F3130040F4D7
:10030000801B0098924620B10023D2EB030A63EBD6
:100310000B0B01985946C0F14002504600F094F989
:1003200006460D4650465946019A00F09CF910EBDE
:1003300008006141002487EA115284EAE7731A43F6
:1003400040D0009A62B3019A012A4FEA075215DCA5
:10035000001B61EB02014FF0004202EA0752CDE9B7
:100360000042001C41F5801132462B4600F09CF9FA
:1003700003B0BDE8F08F40462146F9E7001B61EB72
:100380000201001C41F5801300185B412018A2F502
:10039000001747EB030140EAD570B6196D4111E033
:1003A0006D084FEA360645EAC0754FEA0752001B52
:1003B00061EB0201001C41F5801149084FEA300051
:1003C0000019514132462B4603B0BDE8F04F00F012
:1003D0005CB90098012240000023D0EB020263EBDD
:1003E000E073009821464FEAE074B8EB000061EB3F
:1003F0000401E9E783F000435BE781F0004158E73F
:100400002DE9FE4F81EA030404F0004421F000418D
:1004100000944FF0000B23F0004350EA01045ED03B
:1004200052EA03045BD0C3F30A54C1F30A552C44C7
:10043000A4F2F3340194A0FB0254C1F3130141F47C
:100440008011C3F3130343F4801301FB024400FB48
:10045000034E840A970A44EA815447EA8357A4FB6F
:10046000076802958D0A05FB07854FEA932C04FB6C
:100470000C542705029D4FEA065847EA1637B5EB9C
:1004800008056EEB070C870E920E47EA811742EAC9
:100490008312A7FB0201B6EB0B0164EB00042B0DEA
:1004A00043EA0C335E1844EB1C50DA465146E7FB36
:1004B0000201C5F313044FEA0B3343EA14534FEA26
:1004C0000432019C43EA0603A4F10C040294009C4C
:1004D000CDE900B400F0E8F803B0BDE8F08F0020EB
:1004E0000146F9E72DE9F04D81EA030404F0004BE1
:1004F00021F0004514464FF0000A23F0004150EA75
:10050000050220D054EA01021DD0C5F30A57024665
:10051000C5F31303C1F31300C1F30A5640F4801569
:1005200043F48013A7EB0608101BD64608F2FD38EB
:1005300073EB050002D308F1010801E092185B415A
:10054000B8F1000F03DA00200146BDE8F08D00206D
:100550004FF48011064684460EE0171B73EB050727
:1005600005D3121B63EB050306434CEA010C490853
:100570004FEA300092185B4150EA0107EDD152EA90
:10058000030012D082EA040083EA0501084305D083
:10059000101BAB4106D20122002306E000224FF0DF
:1005A000004302E06FF0010253101AEB06004CEB1F
:1005B000085110EB0A0041EB0B01BDE8F04D00F0D3
:1005C00064B8C1F30A52C1F3130140F2FF3341F49E
:1005D00080119A4202DA00200146704740F233430C
:1005E0009A42A2F2334202DC5242FFF7E7BD00F02A
:1005F0002BB8000030B5041E71F1000404DB4FF08D
:100600000044404264EB0101141E73F1000405DB59
:100610001C464FF00043524263EB0403994208BF6B
:10062000904230BD064C074D06E0E06840F0010303
:1006300094E8070098471034AC42F6D3FFF75AFD10
:10064000C08A0008E08A0008202A04DB203A00FA69
:1006500002F1002070479140C2F1200320FA03F319
:10066000194390407047202A06DBCB17203A41FA05
:1006700002F043EAE07306E041FA02F3D040C2F12F
:100680002002914008431946704710B5141E73F1BB
:10069000000408DA401C41F1000192185B411A4342
:1006A00001D120F0010010BD2DE9F04D92469B468E
:1006B00011B1B1FA81F202E0B0FA80F22032904634
:1006C000FFF7C2FF04460F4640EA0A0041EA0B0169
:1006D00053465A46084313D0114653EA010019D035
:1006E000C8F140025046FFF769FD05460E465046E8
:1006F00059464246FFF7A8FF084305D0012004E011
:1007000020463946BDE8F08D0020054346EAE076F4
:100710002C4337430A986305E40AA0EB0800002243
:10072000FD0A44EA47540A3002D500200146E9E7B1
:10073000010510196941DDE9084500196941BDE865
:10074000F04DA2E730B58C1810F8012B12F00F0312
:1007500001D110F8013B120906D110F8012B03E07A
:1007600010F8015B01F8015B5B1EF9D101E001F8B3
:10077000013B521EFBD1A142E6D3002030BD00BF99
:10078000FEE770470021074AD1610749096941F036
:100790000401054A11611146096941F040011161E6
:1007A0007047000038070020002002400021074A5F
:1007B000D1610749096941F00201054A11611146F9
:1007C0004861096941F04001116170473807002014
:1007D000002002400022054BDA61054A126942F00E
:1007E0000102034B1A6101807047000038070020A6
:1007F0000020024000201E49C96801F0100139B1F3
:100800001C49C96941F002011A4AD16140F0100047
:100810001749C96801F0040139B11649C96941F0A5
:100820000101144AD16140F004001149C96901F085
:10083000010169B10F49C96941F004010D4AD16153
:1008400000BF0B49C96921F00101094AD16100BF0C
:1008500000BF40F20111884206D10549C96921F063
:100860000101034AD16101E00149C86000BF70473E
:10087000002002403807002070B5044600F0B6FAA8
:10088000054609E0601C38B124B100F0AFFA401B06
:10089000A04201D9032070BD1248C06800F00100D9
:1008A0000028EFD10F48C06800F0200020B100BF41
:1008B00020200C49C86000BF0A48C06800F0100042
:1008C00048B90848C06900F0010020B90548C0686F
:1008D00000F0040018B1FFF78DFF0120DBE70020D6
:1008E000D9E700000020024070B5044600F07EFA0F
:1008F00006462546681C10B104480078054400BF30
:1009000000F074FA801BA842FAD370BDE400002006
:100910002DE9F04104460E460127002500BF264878
:10092000007E012802D10220BDE8F0810120224989
:10093000087600BF2068022813D14CF25030FFF730
:100940009BFF90BB0120FFF71DFF4CF25030FFF7DB
:1009500093FF07461948006920F004001749086111
:1009600023E04CF25030FFF787FFF0B94FF0FF3033
:100970003060A56812E02846FFF718FF4CF25030AF
:10098000FFF77AFF07460D48006920F002000B4987
:1009900008610FB1356007E005F58065D4E9021004
:1009A00001EB8020A842E6D800BF00BF002002492A
:1009B000087600BF3846B7E738070020002002401D
:1009C0000348006940F08000014908610020704739
:1009D000002002402DE9FE4F05468B4617469846FB
:1009E000012600240020029000BF2448007E012838
:1009F00002D10220BDE8FE8F01202049087600BF09
:100A00004CF25030FFF738FF064686BB012D02D16D
:100A10000120029006E0022D02D10220029001E0A6
:100A20000420029000241EE02201B946C246484636
:100A30005146FFF7C3FB80B20190022000FB04B0D7
:100A400000900199FFF7C6FE4CF25030FFF714FFFB
:100A500006460B48006920F001000949086106B10B
:100A600004E0601CC4B202988442DDDB00BF00BF1A
:100A700000200249087600BF3046BBE73807002057
:100A80000020024000200849096901F0800151B1AD
:100A90000649054A5160064951601146096901F04D
:100AA000800101B101207047002002402301674509
:100AB000AB89EFCD2DE9F84703460024002000253F
:100AC0008446002700226EE14FF0010808FA02F484
:100AD000D1F8008008EA0400A0427DD1DFF8D0A25E
:100AE000D1F80480A8EB0A09D0453AD014DCB8F15B
:100AF000030F50D009DCB8F1000F31D0B8F1010F6D
:100B00001CD0B8F1020F49D120E0B8F1110F18D074
:100B1000B8F1120F42D11EE0B9F5881F25D006DCCE
:100B2000B9F5803F20D0B9F5801F37D11AE0B9F56B
:100B3000001F18D0B9F5041F30D117E0D1F80CC050
:100B40002DE0D1F80C8008F1040C28E0D1F80C80DD
:100B500008F1080C23E0D1F80C8008F10C0C1EE021
:100B600000BF00BF00BF00BF00BF00BFD1F80880BA
:100B7000B8F1000F02D14FF0040C0BE0D1F808805F
:100B8000B8F1010F03D14FF0080C1C6102E04FF0E7
:100B9000080C5C6103E04FF0000C00E000BF00BFF8
:100BA000FF2801D8984601E003F104084646FF28D3
:100BB00002D84FEA820803E0A2F108084FEA880849
:100BC0004746D6F800804FF00F0909FA07F928EADE
:100BD00009080CFA07F900E088E048EA0908C6F8B5
:100BE0000080D1F8048008F08058B8F1805F7DD192
:100BF00000BFDFF8C081D8F8188048F00108DFF89E
:100C0000B491C9F81880C846D8F8188008F00108CF
:100C1000CDF8008000BF00BF4FEAB9384FEA920913
:100C200058F829504FEA82784FEA18794FF00F08A8
:100C300008FA09F825EA0805DFF87C81434502D166
:100C40004FF0000816E0DFF87481434502D14FF001
:100C500001080FE0DFF86881434502D14FF0020838
:100C600008E0DFF86081434502D14FF0030801E05E
:100C70004FF004084FEA82794FEA197908FA09F827
:100C800048EA0505DFF840814FEA920948F8295003
:100C9000D1F8048008F48038B8F5803F0AD1DFF835
:100CA0002C81D8F8008048EA0008DFF82091C9F8C4
:100CB000008009E0DFF81481D8F8008028EA0008F5
:100CC000DFF80891C9F80080D1F8048008F40038F2
:100CD000B8F5003F10D1DFF8F48008F10408D8F827
:100CE000008048EA0008DFF8E49000E05AE009F1EB
:100CF0000409C9F800800DE0DFF8D08008F104088D
:100D0000D8F8008028EA0008DFF8C09009F104094B
:100D1000C9F80080D1F8048008F48018B8F5801F65
:100D20000ED1DFF8A88008F10808D8F8008048EA5A
:100D30000008DFF8989009F10809C9F800800DE073
:100D4000DFF8888008F10808D8F8008028EA000851
:100D5000DFF8789009F10809C9F80080D1F804801B
:100D600008F40018B8F5001F0ED1DFF8608008F114
:100D70000C08D8F8008048EA0008DFF8509009F124
:100D80000C09C9F800800DE0DFF8408008F10C087C
:100D9000D8F8008028EA0008DFF8309009F10C0943
:100DA000C9F80080521C102AFFF48EAEBDE8F88707
:100DB000000011100010024000080140000C01402A
:100DC00000100140001401400800014000040140EF
:100DD000024693680B400BB1012000E000207047F1
:100DE0000AB1016101E00B0403617047014800682A
:100DF00070470000DC00002070B504460026002586
:100E00000CB9012070BD94F83D0028B9002084F889
:100E10003C00204600F078F9242084F83D0020684A
:100E2000006820F001002168086000F0A7FB05467B
:100E30004C496068884206D84B48854201D201205F
:100E400007E0002005E04948854201D2012000E08A
:100E50000020012800D1D5E74548B5FBF0F6206811
:100E6000466040496068884201D8701C07E04FF432
:100E7000967070434FF47A71B0FBF1F0401C21681A
:100E8000086238496068884214D8681E6168490061
:100E9000B0FBF1F0401CC0F30B00042801D2042089
:100EA0003DE0681E61684900B0FBF1F0401CC0F3F2
:100EB0000B0034E0A06838B9681E616801EB41019D
:100EC000B0FBF1F0401C0AE0681E616801EBC10252
:100ED00002EB0111B0FBF1F0401C40F48040C0F384
:100EE0000B0008B901201AE0A06848B9681E6168C3
:100EF00001EB4101B0FBF1F0401CC0F30B000CE032
:100F0000681E616801EBC10202EB0111B0FBF1F058
:100F1000401CC0F30B0040F4804040F400402168C6
:100F2000C861D4E90701084321680860D4E90310C7
:100F3000084321688860D4E9050108432168C86036
:100F40002068006840F001002168086000202064EB
:100F5000202084F83D000020206384F83E0000BF7C
:100F600050E70000A086010080841E0000093D00BB
:100F700040420F002DE9F8430446894616461F46B5
:100F8000DDF820800025FFF731FF054694F83D008D
:100F900020287DD11923012259492046009501F0CE
:100FA00024F910B10220BDE8F88300BF94F83C009A
:100FB000012801D10220F6E7012084F83C0000BF9F
:100FC0002068006800F0010028B92068006840F03F
:100FD0000100216808602068006820F40060216832
:100FE0000860212084F83D00102084F83E00002095
:100FF0002064666267854348E062608D20852B46E9
:1010000042464946204601F065F880B1206C04282C
:1010100006D100BF002084F83C0000BF0120C2E7D9
:1010200000BF002084F83C0000BF0320BBE700BFE6
:10103000002000902068406900902068806900903E
:1010400000BF00BF46E02A464146204601F061F954
:1010500060B1206C042807D12068006840F400705B
:101060002168086001209EE703209CE7616A481C14
:101070006062087821680861608D401E6085208D5F
:10108000401E208520684069C0F3800078B100E0F0
:1010900034E0208D58B1616A481C6062087821688C
:1010A0000861608D401E6085208D401E20852A4687
:1010B0004146204601F06EF860B1206C042807D14B
:1010C0002068006840F400702168086001206AE729
:1010D000032068E7208D0028B5D12068006840F41F
:1010E000007021680860202084F83D00002084F80A
:1010F0003E0000BF84F83C0000BF54E7022052E7E6
:10110000020010000000FFFF10B586B004460F4932
:101110002068884217D1C02002901220039003203B
:10112000059002A90A48FFF7C5FC00BF0948C0693D
:1011300040F400100749C8610846C06900F4001077
:10114000019000BF00BF06B010BD00000054004079
:10115000000C014000100240034800680349097870
:101160000844014908607047DC000020E4000020CA
:1011700010B50848006840F01000064908600320D8
:1011800000F0EEF8002000F007F800F049F8002029
:1011900010BD00000020024070B588B00446002554
:1011A0000026002221461D2000F09BF81D2000F0A3
:1011B0008BF800BF1648C06940F002001449C861AE
:1011C0000846C06900F00200019000BF00BF02A9FC
:1011D00003A800F0ABF900F0D1F905460D48B5FBC6
:1011E000F0F0461E0C480D49086040F2E7310B480C
:1011F000C160466000210161816000F09AFC20B965
:10120000064800F0B1FC08B070BD0120FBE700000B
:101210000010024040420F0000040040F40600208D
:1012200008B500BF2648806940F001002449886164
:101230000846806900F00100009000BF00BF00BFB9
:101240000846C06940F08050C8610846C06900F097
:101250008050009000BF00BF032000F081F8002202
:1012600011466FF00B0000F03CF8002211466FF0C1
:101270000A0000F036F8002211466FF0090000F075
:1012800030F800221146501F00F02BF800221146C2
:10129000101F00F026F800220F21901E00F021F808
:1012A00000220F21501E00F01CF800BF05494868BD
:1012B00020F0E06040F00070486000BF08BD000012
:1012C000001002400000014000BF00F01F02012199
:1012D00091404209920002F1E022C2F8001100BFE1
:1012E00070472DE9F05F80460D461646002701F055
:1012F0009FFA074639462A46334601F00700C0F1F7
:10130000070ABAF1040F02D94FF0040A01E0C0F154
:10131000070AD14600F1040ABAF1070F02D24FF0D2
:10132000000A01E0A0F1030AD4464FF0010A0AFACC
:1013300009FAAAF1010A0AEA020A0AFA0CFA4FF0BB
:10134000010B0BFA0CFBABF1010B0BEA030B4AEAA6
:101350000B042146404601F073FABDE8F09F0000FF
:1013600000BF00F00702064B19684FF6FF03194053
:10137000044B0B4343EA0221014B196000BF704745
:101380000CED00E00000FA0570B504460D4600269D
:101390006248006800F00700A8420ED25F4800686B
:1013A00020F0070028435D4908600846006800F007
:1013B0000700A84201D0012070BD207800F0020093
:1013C000022807D15648406820F0F000A168084381
:1013D00053494860207800F0010000285DD0606823
:1013E000012806D14E48006800F4003090B9012071
:1013F000E2E76068022806D14948006800F0007002
:1014000040B90120D8E74648006800F0020008B95A
:101410000120D1E74248406820F00300616808439A
:101420003F494860FFF7E2FC06466068012810D19A
:1014300008E0FFF7DBFC801B41F28831884201D9CC
:101440000320B9E73648406800F00C000428F0D1CA
:1014500023E06068022810D108E0FFF7C7FC801B7A
:1014600041F28831884201D90320A5E72C48406821
:1014700000F00C000828F0D10FE008E0FFF7B6FC00
:10148000801B41F28831884201D9032094E7244827
:10149000406800F00C000028F0D12048006800F0FF
:1014A0000700A8420ED91D48006820F00700284315
:1014B0001A4908600846006800F00700A84201D0F9
:1014C000012079E7207800F00400042807D11448AF
:1014D000406820F4E060E1680843114948602078E2
:1014E00000F00800082808D10D48406820F460503A
:1014F000216940EAC1000A49486000F04FF80849F4
:101500004968C1F30311074A515CC84006490860A5
:101510000020FFF741FE00204EE7000000200240BF
:1015200000100240708A0008E80000200F220260CC
:101530000D4A526802F0030242600B4A526802F000
:10154000F0028260084A526802F4E062C260064A11
:10155000526802F46052D2080261044A126802F032
:1015600007020A607047000000100240002002409D
:101570000148006870470000E800002000B5FFF750
:10158000F7FF04494968C1F30221034A515CC8408E
:1015900000BD000000100240808A0008F0B585B050
:1015A0000FF26C0C9CE8E01001A8A0E8E0101CA56C
:1015B0002D68009500210022002300240020194DF1
:1015C000696801F00C05F5B1042D02D0082D19D180
:1015D00001E0154819E001ADC1F38346AC5D01F4AB
:1015E000803555B10F4D6D68C5F340451DF8052098
:1015F0000D4D6543B5FBF2F302E00C4D04FB05F322
:10160000184602E000BF084800BF00BF05B0F0BDAB
:1016100002030405060708090A0B0C0D0E0F101033
:10162000010200000010024000127A0000093D0093
:10163000F8B504460025207800F00100002878D095
:10164000F848406800F00C0004280CD0F5484068C9
:1016500000F00C00082811D1F248406800F48030F6
:10166000B0F5803F0AD1EF48006800F40030002850
:101670005FD0606800285CD10120F8BD00BF6068C1
:10168000B0F5803F06D1E748006840F48030E54976
:10169000086028E0606858B9E248006820F48030AB
:1016A000E04908600846006820F4802008601AE0DD
:1016B0006068B0F5A02F0BD1DA48006840F48020B4
:1016C000D84908600846006840F4803008600AE0A5
:1016D000D448006820F48030D24908600846006889
:1016E00020F48020086000BF606888B1FFF77EFBAF
:1016F000054606E0FFF77AFB401B642801D903206A
:10170000BBE7C848006800F400300028F2D010E0C1
:10171000FFF76CFB054606E0FFF768FB401B6428FB
:1017200001D90320A9E7BF48006800F40030002871
:10173000F2D1207800F00200022857D1B948406861
:1017400000F00C0050B1B748406800F00C000828C9
:1017500018D1B448406800F4803098B9B1480068A6
:1017600000F0020020B12069012801D0012084E7A7
:10177000AC48006820F0F800616940EAC100A9495E
:10178000086033E02069E8B10120A7490860FFF74D
:101790002DFB054606E0FFF729FB401B022801D977
:1017A00003206AE79F48006800F002000028F2D09A
:1017B0009C48006820F0F800616940EAC10099493E
:1017C000086013E0002098490860FFF70FFB05460A
:1017D00006E0FFF70BFB401B022801D903204CE772
:1017E0009048006800F002000028F2D1207800F054
:1017F000080008282DD1A069B8B101208B490860E4
:10180000FFF7F4FA054606E0FFF7F0FA401B02285E
:1018100001D9032031E78348406A00F00200002824
:10182000F2D0012001F020F813E000207F49086089
:10183000FFF7DCFA054606E0FFF7D8FA401B02285E
:1018400001D9032019E77748406A00F00200002818
:10185000F2D1207800F00400042873D100267148EA
:10186000C06900F0805070B900BF6E48C06940F098
:1018700080506C49C8610846C06900F080500090F3
:1018800000BF00BF01266A48006800F48070B0B94C
:101890006748006840F4807065490860FFF7A6FA61
:1018A000054606E0FFF7A2FA401B642801D9032091
:1018B000E3E65F48006800F480700028F2D000BFC3
:1018C000E068012806D15748006A40F001005549F8
:1018D000086227E0E06858B95248006A20F0010029
:1018E000504908620846006A20F00400086219E0C6
:1018F000E06805280BD14B48006A40F004004949D4
:1019000008620846006A40F0010008620AE04548A3
:10191000006A20F00100434908620846006A20F08E
:101920000400086200BFE068A0B1FFF75FFA054657
:1019300009E0FFF75BFA401B41F28831884202D987
:1019400003209AE622E03748006A00F002000028EF
:10195000EFD012E0FFF74AFA054608E0FFF746FA33
:10196000401B41F28831884201D9032085E62D4889
:10197000006A00F002000028F0D1012E05D12948AC
:10198000C06920F080502749C86100BFE069C8B332
:101990002448406800F00C00082860D0E069022864
:1019A00048D1002020490866FFF720FA054606E0E6
:1019B000FFF71CFA401B022801D903205DE61948F5
:1019C000006800F000700028F2D1206AB0F5803F76
:1019D00007D11448406820F40030A1680843114939
:1019E0004860D4E9080108430E49496821F474119C
:1019F00008430C49486001200B490866FFF7F6F9D7
:101A0000054607E02DE0FFF7F1F9401B022801D958
:101A1000032032E60348006800F000700028F2D08E
:101A20001FE00000001002400000424280044242D9
:101A30000070004000200C490866FFF7D7F9054602
:101A400006E0FFF7D3F9401B022801D9032014E672
:101A50000648006800F000700028F2D101E0012083
:101A60000BE6002009E600000000424200100240A0
:101A7000042808D14FF0E021096941F004014FF03A
:101A8000E022116107E04FF0E021096921F0040133
:101A90004FF0E0221161704770B504462546681E7C
:101AA000B0F1807F01D301200FE0681E4FF0E021EC
:101AB00048610F214FF0FF3000F0C2FE00204FF0D0
:101AC000E021886107200861002070BD70477047E1
:101AD000024600BF92F83C00012801D10220704765
:101AE000012082F83C0000BF022082F83D0010680F
:101AF000406820F0700013685860106840680B68F8
:101B00001843136858601068806820F080001368DC
:101B10009860106880684B681843136898600120CB
:101B200082F83D0000BF002082F83C0000BF00BFEB
:101B3000D5E710B504460CB9012010BD94F83D005E
:101B400028B9002084F83C00204600F00CF8022060
:101B500084F83D00211D206800F018FF012084F862
:101B60003D000020E9E7704701460868C06840F082
:101B700001000A68D0600868006840F001000A6847
:101B80001060002070472DE9F04104460D464FF0EB
:101B900000080026002714B90120BDE8F08194F860
:101BA0003D0028B9002084F83C00204600F046F8AB
:101BB000022084F83D002068806820F0070021683A
:101BC0008860211D206800F0E1FE2068D0F80880C0
:101BD000206886692068076A286840EA080840F299
:101BE00003308643A969A86840EA0120064340F60D
:101BF0000C4086434FF2F0008643E969E86840EA0A
:101C00000120064328690001296A40EA01300643A1
:101C100027F0220727F088076969686840EA011001
:101C200007432068C0F80880206886612068076242
:101C3000012084F83D000020AFE7000010B586B019
:101C400004460F492068884217D100BF0D488069BB
:101C500040F400600B4988610846806900F4006028
:101C6000019000BF00BF4FF440700290002003902D
:101C7000049002A90448FEF71DFF06B010BD000045
:101C8000002C0140001002400008014030B504461D
:101C90000D4615B1042D18D10BE00122002120685A
:101CA00000F0AEFE2068C06840F002002168C86005
:101CB00022E001220421206800F0A2FE2068C06812
:101CC00040F004002168C86016E00122002120686D
:101CD00000F096FE01220421206800F091FE2068A9
:101CE000C06840F002002168C8602068C06840F009
:101CF00004002168C86000BF00BF2068006840F091
:101D0000010021680860002030BD704710B504460E
:101D100020680069C0F34000D8B12068C068C0F3F3
:101D20004000B0B16FF00200216808610120207707
:101D30002068806900F0030018B12046FFF7E5FF36
:101D400005E0204600F0C2F8204600F077F90020B8
:101D5000207720680069C0F38000D8B12068C0688F
:101D6000C0F38000B0B16FF0040021680861022068
:101D700020772068806900F4407018B12046FFF792
:101D8000C4FF05E0204600F0A1F8204600F056F917
:101D90000020207720680069C0F3C000D8B1206817
:101DA000C068C0F3C000B0B16FF0080021680861DE
:101DB000042020772068C06900F0030018B1204695
:101DC000FFF7A3FF05E0204600F080F8204600F072
:101DD00035F90020207720680069C0F30010D8B1E1
:101DE0002068C068C0F30010B0B16FF01000216827
:101DF0000861082020772068C06900F4407018B19D
:101E00002046FFF782FF05E0204600F05FF82046FD
:101E100000F014F9002020772068006900F001002C
:101E200058B12068C06800F0010030B16FF00100C7
:101E300021680861204600F023F920680069C0F39A
:101E4000C01058B12068C068C0F3C01030B16FF046
:101E50008000216808612046FFF738FE206800698D
:101E6000C0F3801058B12068C068C0F3801030B152
:101E70006FF0400021680861204600F00DF92068ED
:101E80000069C0F3401058B12068C068C0F340102A
:101E900030B16FF02000216808612046FFF717FE7F
:101EA00010BD00001FB5044606492068884208D1CD
:101EB0008015009002200190039069460248FEF7C9
:101EC000F9FD1FBD00080040000C0140704770B5CF
:101ED00004460D46164600BF94F83C00012801D187
:101EE000022070BD012084F83C0000BF022084F86D
:101EF0003D0036B1042E1BD0082E31D00C2E5ED101
:101F000045E02946206800F089FD2068806940F09E
:101F10000800216888612068806920F00400216839
:101F2000886120688069296908432168886147E0E1
:101F30002946206800F0A4FD2068806940F4006014
:101F4000216888612068806920F480602168886148
:101F500020688069296940EA0120216888612FE0B2
:101F60002946206800F0C4FD2068C06940F00800E0
:101F70002168C8612068C06920F004002168C86138
:101F80002068C069296908432168C86118E02946AA
:101F9000206800F0E3FD2068C06940F4006021681B
:101FA000C8612068C06920F480602168C861206829
:101FB000C069296940EA01202168C86100E000BFCA
:101FC00000BF012084F83D0000BF002084F83C00E1
:101FD00000BF00BF85E710B504460CB9012010BD55
:101FE00094F83D0028B9002084F83C00204600F019
:101FF0000DF8022084F83D00211D206800F0C6FC89
:10200000012084F83D000020E9E7000008B5094AF6
:10201000016891420DD100BF0749C96941F004012F
:10202000054AD1611146C96901F00401009100BF60
:1020300000BF08BD000800400010024070470000CB
:1020400030B504460D4601222946206800F0D8FC30
:102050000A492068884201D1012000E0002028B10F
:102060002068406C40F400402168486420680068A3
:1020700040F0010021680860002030BD002C0140C4
:1020800010B5044603492068884201D1FFF764F87F
:1020900010BD000000040040704700BFFEE701468D
:1020A00008684069C0F3802088B16FF480600A68D6
:1020B00050610420086400200863202081F83D005E
:1020C00000BF002081F83C0000BF012070470020C5
:1020D000FCE700002DE9F84304460D4617469846F4
:1020E000E66A042E04D0012E02D016F5803F06D1F8
:1020F0002068006840F480702168086008E0206B68
:10210000122805D12068006840F4807021680860BA
:102110003B4600224FF001112046CDF8008000F030
:1021200064F810B10320BDE8F8832069B0F5804F52
:1021300004D105F0FE002168086117E005F4407045
:10214000F02141EAE0102168086143463A4610490F
:10215000204600F088F830B1206C042801D101201D
:10216000E1E70320DFE7E8B22168086143463A4629
:102170000749891F204600F076F830B1206C04280A
:1021800001D10120CFE70320CDE70020CBE70000FD
:102190000800010070B504460D4616461DE02046B5
:1021A000FFF77DFF08B1012070BD681CA8B125B103
:1021B000FEF71CFE801BA8420FD9206C40F02000C7
:1021C000206400202063202084F83D0000BF002010
:1021D00084F83C0000BF0320E6E720684069C0F3B4
:1021E00080000028DBD00020DEE72DE9F041044626
:1021F0000D4617461E46DDF8188017E0701CA8B182
:102200002EB1FEF7F3FDA0EB0800B0420ED900207E
:102210002063202084F83D00002084F83E0000BFA9
:1022200084F83C0000BF0320BDE8F081C5F30740FF
:1022300001280AD120684069A9B20840A9B28842A1
:1022400001D101200BE0002009E020688069A9B2DB
:102250000840A9B2884201D1012000E00020B84224
:10226000CCD00020E0E72DE9F04104460D461646AB
:102270001F4631E020684069C0F38020C0B120686B
:10228000006840F40070216808606FF48060216885
:1022900048610420206400202063202084F83D0051
:1022A00000BF002084F83C0000BF0120BDE8F081A1
:1022B000701C88B126B1FEF799FDC01BB0420BD946
:1022C00000202063202084F83D0000BF002084F817
:1022D0003C0000BF0320E9E7C5F3074001280AD10D
:1022E00020684069A9B20840A9B2884201D1012002
:1022F0000BE0002009E020688069A9B20840A9B27B
:10230000884201D1012000E000200028B2D0002046
:10231000CCE770B504460D4616461DE02046FFF793
:10232000BEFE08B1012070BD681CA8B125B1FEF742
:102330005DFD801BA8420FD9206C40F02000206476
:1023400000202063202084F83D0000BF002084F896
:102350003C0000BF0320E6E720684069C0F3C010DE
:102360000028DBD00020DEE7F8B506460C46002545
:10237000064804704FF47A700123044A4E210090FD
:102380000348FEF7F7FD2846F8BD00005E00002078
:102390002006002000B5ADB000202C9001212CA813
:1023A00003F0FAFC7549086000202B9001212BA84E
:1023B00003F0F2FC7249086000202A9001212AA84B
:1023C00003F0EAFC6F49086000202990012129A848
:1023D00003F0E2FC6C49086000202890012128A845
:1023E00003F0DAFC6949086000202790012127A842
:1023F00003F0D2FC6649086000202690012126A83F
:1024000003F0CAFC6349086000202590012125A83B
:1024100003F0C2FC6049086000202490012124A838
:1024200003F0BAFC5D49086000202390012123A835
:1024300003F0B2FC5A49086000202290012122A832
:1024400003F0AAFC5749086000202190012121A82F
:1024500003F0A2FC5449086000202090012120A82C
:1024600003F09AFC5149086000201F9001211FA829
:1024700003F092FC4E49086000201E9001211EA826
:1024800003F08AFC4B49086000201D9001211DA823
:1024900003F082FC4849086000201C9001211CA820
:1024A00003F07AFC4549086000201B9001211BA81D
:1024B00003F072FC4249086000201A9001211AA81A
:1024C00003F06AFC3F49086000201990012119A817
:1024D00003F062FC3C49086000201890012118A814
:1024E00003F05AFC3949086000201790012117A811
:1024F00003F052FC3649086000201690012116A80E
:1025000003F04AFC3349086000201590012115A80A
:1025100003F042FC304908601422304910A8FDF74E
:102520005DFE002110A803F0B9FC2D4908601422BB
:102530002A4914310BA8FDF751FE00210BA803F026
:10254000ADFC2849086014222449283106A8FDF76B
:1025500045FE002106A803F0A1FC234908601422CF
:102560001E493C3101A8FDF739FE002101A803F006
:1025700095FC1E4908602DB000BD00007C000020C5
:102580008000002084000020880000208C000020B3
:102590009000002094000020980000209C00002063
:1025A000A0000020A4000020A8000020AC00002013
:1025B000B0000020B4000020B8000020BC000020C3
:1025C000C0000020C4000020C8000020CC00002073
:1025D000D0000020D4000020D8000020208A00086D
:1025E0006C000020700000207400002078000020A3
:1025F00000B585B000BF3048806940F020002E490A
:1026000088610846806900F02000009000BF00BF8C
:1026100000BF0846806940F0040088610846806970
:1026200000F00400009000BF00BF00BF08468069B2
:1026300040F0080088610846806900F008000090BA
:1026400000BF00BF002249F6C2011C48FEF7C8FBCC
:1026500000224FF63B411A48FEF7C2FB49F6C20082
:1026600001900120029002200390049001A91348D8
:10267000FEF720FA3C2001900020029002200390F7
:1026800001A90E48FEF716FA4FF63B4001900120D3
:10269000029002200390049001A90948FEF70AFA6B
:1026A0004FF40070019000200290039001A90448AB
:1026B000FEF700FA05B000BD00100240000801401E
:1026C000000C014010B50C480C4908600C484860EB
:1026D00000210A488160C1604FF4804101610021FE
:1026E00041618161C1610162FEF786FB18B14C2135
:1026F00004A000F06DFA10BD005400402006002038
:10270000A08601002E2E2F5372632F6932632E6331
:102710000000000000B58BB01B481C490860002079
:1027200048600021194881604FF47A71C16000212E
:10273000016141618161032002900020039001202A
:102740000490002005900F200690022007900120A1
:102750000890002009900F200A9002A90B48FFF76B
:1027600012FA18B156210AA000F032FA00200090A7
:10277000019069460548FFF7ABF918B15D2104A047
:1027800000F026FA0BB000BD002C014074060020BA
:102790002E2E2F5372632F74696D2E63000000007C
:1027A00000B589B01A481B49086000204860002124
:1027B000184881604DF2D861C160002101618161DA
:1027C000FFF709FC18B16F2113A000F001FA0020F7
:1027D0000790089007A90F48FFF77AF918B17621FA
:1027E0000DA000F0F5F9602000900020019002900B
:1027F0000490082269460748FFF769FB18B17F215A
:1028000005A000F0E5F90348FFF74CFB09B000BD57
:1028100000080040B40600202E2E2F5372632F7440
:10282000696D2E630000000000BFFEE770470000E6
:1028300002480068C0F30220704700000CED00E081
:1028400010B5002807DA0A07140E054A00F00F0336
:102850001B1FD45403E00A07130E024A135410BD81
:1028600018ED00E000E400E008B508490968C9086F
:102870004FF47A72B1FBF2F14143009100BF00BF07
:1028800000994A1E00920029F9D108BDE8000020F5
:1028900010B503F0FBFA10BD10B590B00120069002
:1028A000000407900020089001200A9002200D905B
:1028B000C1030E9100210F9106A8FEF7B9FE18B1D1
:1028C000A02114A000F084F90F20019002200290B2
:1028D00080200390002004900590002101A8FEF7BD
:1028E00053FD18B1AE210BA000F072F9FEF740FEC7
:1028F0004FF47A71B0FBF1F42046FFF7CDF80420D5
:10290000FFF7B6F800220F21501EFEF7EAFC10B0C8
:1029100010BD00002E2E2F5372632F6D61696E2E35
:10292000630000001148006840F001000F49086092
:10293000084640680E4908400C494860084600684F
:102940000C490840094908600846006820F48020C6
:1029500008600846406820F4FE0048604FF41F00FD
:102960008860C803044908607047000000100240F6
:102970000000FFF8FFFFF6FE08ED00E010B502488A
:10298000FFF7C4F910BD0000F40600200022026821
:10299000184B984208D0B0F1804F05D0164B9842A2
:1029A00002D0164B984203D122F070024B681A43B2
:1029B000104B984208D0B0F1804F05D00E4B984292
:1029C00002D00E4B984203D122F44072CB681A43D6
:1029D00022F080024B691A4302608B68C3620B6865
:1029E0008362044B984201D10B6903630123436165
:1029F00070470000002C0140000400400008004027
:102A000030B50023012404FA01F3046A9C430462F4
:102A1000046A02FA01F52C43046230BD30B500248B
:102A200000220023056A25F001050562026A436859
:102A3000846924F0700424F003040D682C4322F010
:102A400002028D682A430D4DA84206D100BF22F034
:102A50000802CD682A4322F00402084DA84207D19B
:102A600023F4807323F400734D692B438D692B434A
:102A7000436084614D684563026230BD002C0140B3
:102A800030B5002400220023056A25F010050562F8
:102A9000026A4368846924F4E04424F440740D68B5
:102AA00044EA052422F020028D6842EA05120F4D07
:102AB000A84207D100BF22F08002CD6842EA051289
:102AC00022F04002094DA84209D123F4806323F487
:102AD00000634D6943EA85038D6943EA85034360DA
:102AE00084614D688563026230BD0000002C0140A6
:102AF00030B5002400220023056A25F480750562A4
:102B0000026A4368C46924F0700424F003040D6869
:102B10002C4322F400728D6842EA05220E4DA84231
:102B200007D100BF22F40062CD6842EA052222F4F8
:102B30008062094DA84209D123F4805323F4005345
:102B40004D6943EA05138D6943EA05134360C46187
:102B50004D68C563026230BD002C014030B50022D3
:102B600000230024056A25F480550562036A446841
:102B7000C26922F4E04222F440720D6842EA052262
:102B800023F400538D6843EA0533074DA84204D16E
:102B900024F480444D6944EA85144460C2614D6860
:102BA0000564036230BD0000002C014000BF04F04A
:102BB000B9FDFCE700BF04F0F5FDFCE700BF03F042
:102BC000AFFEFCE700BF04F071FDFCE700BFFEE7CD
:102BD00000BFFEE70FB4084B10B504A902AA039882
:102BE00000F0DEF8044602A9002000F070FC204648
:102BF00010BC5DF814FB0000CF34000802E008C8E8
:102C0000121F08C1002AFAD170477047002001E066
:102C100001C1121F002AFBD1704700002DE9FF5FA0
:102C200082B00021DDE90430020DDDF840B003433D
:102C300018D044F61050A2F2FF32424315141198F6
:102C400001281FD0A5EB0B00401C5FEA000A4FF0E3
:102C500000064E4FDFF83891B046504615D5CAF100
:102C6000000413E0119801244AA3012801D16FEA5E
:102C70000B010298119AC0E90031C0E9024206B086
:102C8000BDE8F09FCBF10000DFE704460021404A99
:102C9000491842EB0450CDE9001012E0E00707D0DC
:102CA00032463B4640464946FDF7AAFB80468946E8
:102CB00032463B4610461946FDF7A2FB06460F4634
:102CC0006410002CEAD1DDE90401DDE90023BAF14A
:102CD000000F06DAFDF794FB42464B46FDF790FBEA
:102CE00005E0FDF7FFFB42464B46FDF7FBFB0446C4
:102CF0000E460022284BFDF77DFC03D84FF0FF3035
:102D0000014607E00022254B20463146FDF7D1FA67
:102D1000FDF757FC102409E0002C0ADB0A220023EF
:102D2000FDF796FA039B30321A55641E50EA0102F1
:102D3000F2D1641C039AC4F111031444119A012ABC
:102D400003D0012208430DD10AE0084304D000203B
:102D50004FF0110B119072E7A3EB0B056D1E0DE008
:102D60005B4504DD4FF0000205F1010504E003DAE4
:102D70004FF00002A5F10105002AECD0029811994C
:102D8000C0E90231C0E9004579E7000000001440C5
:102D90000000F03F300000000000F0430000E03F82
:102DA0002DE9FF4F95B09B468946064600250FE268
:102DB000252877D100242746F84A0121059400E010
:102DC000044316F8013F203B01FA03F01042F7D10B
:102DD00030782A2811D06FF02F033078A0F130021C
:102DE000092A16D8059A44F0020402EB820203EB8A
:102DF00042021044761C0590EFE759F8042B059227
:102E0000002A03DA504244F40054059044F00204CE
:102E1000761C30782E2816D116F8010F44F00404E1
:102E20002A280DD06FF02F023078A0F13003092B43
:102E300009D807EB870302EB4303C718761CF3E7B7
:102E400059F8047B761C30786C280FD006DC4C28AF
:102E500017D068280DD06A2814D104E0742810D047
:102E60007A280FD10DE044F400140AE044F48014F1
:102E700001E044F440147278824202D104F58014D7
:102E8000761C761C307866280BD013DC582877D057
:102E900009DC002875D04528F6D04628F4D047280C
:102EA0001AD19DE118E0632835D0642879D06528CF
:102EB00012D195E1702873D008DC6728F1D0692819
:102EC0006FD06E280DD06F2806D1B5E073282CD0B6
:102ED000752875D0782874D05A46179990476D1C7C
:102EE00075E1C4F30250022809D003280DD0D9F8A7
:102EF000001004280DD00D6009F1040967E1D9F82C
:102F00000010EA17C1E90052F6E7D9F800100D8069
:102F1000F2E70D70F0E719F8041B8DF8001000209F
:102F20008DF80100EA46012003E059F804AB4FF0A8
:102F3000FF3061074FF0000102D40DE008F10101FC
:102F40008846B9420FDA8045F8DB1AF808100029E4
:102F5000F4D108E008F1010188468142FADB1AF851
:102F600008100029F6D105985B46A0EB080721461A
:102F70003846179A00F094FA284400EB080507E059
:102F80004DE029E10DE01AF8010B5A4617999047D8
:102F9000B8F10108F7D25B4621463846179A13E18B
:102FA00042E00A220092C4F302524FF0000A022AC1
:102FB00008D059F804CB032A4FEAEC710AD00DE08F
:102FC00029E02AE009F1070121F00702F2E802C135
:102FD000914609E00FFA8CFC4FEAEC71042A03D108
:102FE0004FFA8CFC4FEAEC71002907DA0A460021FF
:102FF000DCF1000C61EB02012D2202E0220504D578
:103000002B228DF80420012203E0E20701D02022C8
:10301000F7E7904659E00A2102E010220DE0102166
:103020004FF0000A00910BE010224FF0000A44F02C
:1030300004040827009203E008224FF0000A0092DF
:10304000C4F30252022A05D059F804CB0021032A06
:1030500008D009E009F1070121F00702F2E802C1F6
:10306000914605E01FFA8CFC042A01D10CF0FF0CFC
:103070004FF00008220728D5702806D0009B83F067
:10308000100353EA0A0305D00EE040228DF8042015
:10309000012208E05CEA010206D030228DF804200B
:1030A0008DF8050002229046009B83F0080353EA46
:1030B0000A030AD15CEA010201D1620705D5302278
:1030C0008DF804204FF001087F1E582804D034A04A
:1030D00003900EA802900DE036A0F9E75346604633
:1030E000009AFDF7B5F884460398825C0298401E6A
:1030F000029002705CEA0100F0D1029806A9081A59
:1031000000F1200A600702D524F4803400E0012792
:10311000574502DDA7EB0A0000E0002000EB0A01A2
:10312000009005984144401A0590E00306D45B46A0
:103130002146179A059800F0B3F90544002706E0E8
:1031400001A85A46C05D179990476D1C7F1C4745E2
:10315000F6DBE0030CD55B462146179A059800F094
:103160009FF9054404E030205A46179990476D1C9A
:103170000099481E00900029F5DC08E002980299A9
:103180005A460078491C0291179990476D1CBAF174
:103190000001AAF1010AF1DC65E100000928010043
:1031A00030313233343536373839616263646566BD
:1031B000000000003031323334353637383941427F
:1031C000434445460000000000F058F90544761CD1
:1031D000307800287FF4ECAD19B02846BDE8F08FB8
:1031E000620700D4062709F1070222F0070CFCE869
:1031F0000223E14603F000485FEA080C02D00FF218
:10320000702C0DE05FEA045C02D50FF2682C07E039
:103210005FEAC47C02D00FF2602C01E0AFF2700CC8
:103220004FF0FF3823F00043CDF850C065280CD094
:1032300006DC452809D046281DD047283DD13DE071
:10324000662818D067287ED138E00021112F01DBD5
:10325000112000E0781CCDE9000106A90EA8FFF7B7
:10326000DDFCDDE90F010E9A03910021009207F1C8
:10327000010A04914DE04FF000400097CDE90110A4
:1032800006A90EA8FFF7CAFCDDE90F0203920E9B08
:1032900011990022DDF80CA00093049211B9791C59
:1032A00000EB010AB7EB0A0004D4C0F1FF3007F1CC
:1032B000010A0490AAEB0700019044E0012F00DA14
:1032C00001270021112F01DD112000E03846CDE952
:1032D000000106A90EA8FFF7A1FCDDE90F010E9A77
:1032E0000391002104910092BA4621070CD403995E
:1032F000514500DA8A46BAF1010F05DD009AAAF1BC
:103300000101515C302908D0B84202DA10F1040FF3
:1033100006DA0121CDE9011015E0AAF10101E9E782
:10332000002805DC049901440491AAEB000102E0A5
:10333000411C514500DD8A460499401A401C019009
:103340004FF000400290200704D40198504501DB63
:10335000CDF8048000208DF84F0002980DF14F0742
:10336000B0F1004F25D02B200E9002984FF00208AC
:1033700000280CDA404202902D200E9007E00A212E
:103380000298FCF74FFF3031029007F8011DB8F1A9
:103390000001A8F10108F2DC02980028EFD1791EA3
:1033A0000E980870307800F0200040F0450007F8D3
:1033B000020D12A8C01B00F107081498007800B194
:1033C000012000EB0A01019801EBE07105984144EE
:1033D000401A401E0590E00306D45B462146179A2A
:1033E000059800F05DF805441498007818B15A4625
:1033F000179990476D1CE00324D55B462146179A28
:10340000059800F04DF805441CE00498002807DBFF
:10341000DDE90301884203DD0098405C179901E073
:10342000179930205A469047049805F10105401C31
:1034300004900198401E019004D12E205A461799FD
:1034400090476D1CBAF10001AAF1010ADDDC05E02C
:1034500017F8010B5A46179990476D1CB8F10001F7
:10346000A8F10108F4DC5B462146179A0598ABE603
:103470002D0000002B000000200000002DE9F0418D
:10348000044600251E461746880404D405E0394644
:103490002020B0476D1C641EF9D52846BDE8F08198
:1034A0002DE9F041044600251E469046C80301D58B
:1034B000302700E02027880404D505E0414638463F
:1034C000B0476D1C641EF9D52846BDE8F0810A6836
:1034D000531C0B601070704710B51148006800F065
:1034E0001DFBD8B10F48006800F018FB00B110BDFB
:1034F0000D4800680A2811D30B480068401F0A498C
:1035000008600F21002000F089FB07480E210268A7
:10351000002000F00BFC642002F02DFC00BFE6E769
:1035200080000020B40000203C00002010B51548A9
:10353000006800F0F3FA18B300F0FEF912490860D1
:1035400004F086FC00F042FB10A20121002000F0F4
:1035500005FC11A20121084600F000FC4FF4FA60BE
:1035600002F009FC00F032FB00F05EFC07210020B5
:1035700000F054FB0B4805210268002000F0D6FB48
:1035800010BD0000D800002044000020CDE0F1F282
:10359000F0EEE9EAE8000000D1EEF5F0E0EDE5ED4F
:1035A000FB0000004800002010B50B48006800F048
:1035B000B5FA78B10948006802280BD307480068BB
:1035C000401E0649086003F02DFB00F02DFC64202E
:1035D00002F0D1FB10BD000084000020400000205C
:1035E00010B50B48006800F099FA78B109480068F6
:1035F00006280BD207480068401C0649086003F003
:1036000011FB00F011FC642002F0B5FB10BD0000BE
:10361000880000204000002010B50F48006800F02E
:103620007DFAB8B10D48006800F078FA00B110BD1D
:103630000B4800685A280DD809480068401D084901
:10364000086008460E210268002000F06FFB64202D
:1036500002F091FB00BFEAE77C000020B4000020EC
:103660003C00002070B50446002500F0ABF90120B5
:1036700029E0194951F82010A14203D1164951F807
:10368000205022E0144951F82020211F8A4203D102
:10369000114951F8205018E00F4951F82020A4F1A9
:1036A00008018A4203D10C4951F820500DE00A4923
:1036B00051F82020A4F10C018A4203D1064951F8A7
:1036C000205002E0401C8028D3DB00BF0DB9A220AF
:1036D00070BD2846FCE70000200400202DE9FF43D0
:1036E00004461F46DDE90BC8DDF834900020039046
:1036F000029001900090231D1D1D2E1DA14208D097
:10370000206803900398B8420AD0A22004B0BDE814
:10371000F083206803900398904201D0A220F5E73F
:10372000994206D0186803900298604508D0A220FC
:10373000ECE7186802900298904201D0A220E5E7D9
:10374000A94206D0286801900198404508D0A220DF
:10375000DCE7286801900198904201D0A220D5E7CB
:10376000B14206D0306800900098484508D0A220A9
:10377000CCE7306800900098904201D0A220C5E7C5
:10378000A120C3E710B504466421204602F048FB9F
:1037900010BD70B50446049D601AEE1A7043561AA7
:1037A00090FBF6F0184470BD70B50446049D601A95
:1037B000EE1A7043561A90FBF6F0184470BD0000E4
:1037C00070B505462E46002419E004EBC4000E49EE
:1037D000085CA84205D12146284603F03BF906467D
:1037E0000FE0132C09DA094810F81400A84204D19C
:1037F000064800EB4400467803E0601CC4B2352C58
:10380000E3DB00BF304670BD4C01002029030020DF
:1038100070B5044600250AE00748006800F07EF90C
:1038200008B9012070BD0A2002F0A5FA6D1CA5425E
:10383000F2D30020F6E70000B000002070B5044687
:1038400000250AE00748006800F068F908B901207F
:1038500070BD0A2002F08FFA6D1CA542F2D3002041
:10386000F6E70000B800002070B5044600250AE025
:103870000748006800F052F908B9012070BD0A201D
:1038800002F079FA6D1CA542F2D30020F6E70000A1
:10389000BC00002070B5044600250AE00748006817
:1038A00000F03CF908B9012070BD0A2002F063FA6B
:1038B0006D1CA542F2D30020F6E70000C0000020F6
:1038C00070B5044600250AE00748006800F026F9B4
:1038D00008B9012070BD0A2002F04DFA6D1CA54206
:1038E000F2D30020F6E70000C400002001B509482B
:1038F00000680949B0FBF1F00521B0FBF1F0009937
:103900004843009000BF0098411E00910028FAD162
:1039100008BD0000E800002040420F0010B504F090
:1039200037FA3A20024908600249086010BD0000D9
:10393000242C01402800002010B504F029FA0B487F
:103940000068642805D904F023FA64200749086058
:1039500008E0064800680F2804D804F019FA0F2080
:10396000024908600148006810BD000030000020D6
:10397000C8200449086004490860322003490860EF
:1039800070470000242C0140280000203000002057
:1039900038B5044600254FF4C87000236422194648
:1039A00000902046FFF7F5FE0546034805600348F2
:1039B00005600348046038BD242C01402800002025
:1039C000300000204FF0006007490860012008E047
:1039D000411E054A52F8211001F5806142F820107D
:1039E000401C8028F4DB70472004002010B50446FA
:1039F0001048844201D9A22010BD0F48844201D84A
:103A0000A220F9E7FDF73EF800200C4908600846BF
:103A1000846004F58060001B800AC860084907487C
:103A2000FCF776FF18B1FCF7CBFFA220E4E7A1205A
:103A3000E2E700000CFC01080C5000081004002014
:103A40006400002008B5014600200090086800903E
:103A5000009808BD70B505460C462246002329464D
:103A60000220FCF7B7FF18B1FCF7AAFFA22070BD37
:103A7000A120FCE72DE9F04387B005460E4600245F
:103A80000027A046A14600200690059004900390D0
:103A90002846FFF7E7FD0446A22C02D107B0BDE897
:103AA000F08320680690271D3868059004F1080807
:103AB000D8F80000049004F10C09D9F80000039034
:103AC0002046FFF793FFDDE904210398CDE90012BA
:103AD0000290324629462046069B04F067F9A22848
:103AE00003D1FCF76DFFA220D8E7DDE9042103989C
:103AF000CDE900120290324629462046069BFFF788
:103B0000EDFDA22800D1C9E7FCF75AFFA120C5E7C7
:103B100001480068704700003C00002010B50446D2
:103B2000204602F04FF910BD00BFEFF3058008B149
:103B3000012070470020FCE72DE9F04708AC94E82D
:103B4000F010DDF8348000EBC009DFF85CA00AF863
:103B5000091000EBC009D14489F8012000EBC0092D
:103B6000D14489F8023000EBC009D14489F8034000
:103B700000EBC009D14489F8045000EBC009D144DE
:103B800089F8056000EBC009D14489F8067000EBA4
:103B9000C009D14489F807C000EBC009D14489F8B5
:103BA0000880BDE8F08700004C01002030B50246D7
:103BB00000200B461446132B01DC002B00DA0120F9
:103BC000032C01DC002C00DA012030BD10B50021EF
:103BD000012000F097FA002408E014200B49085552
:103BE0000B4908550B490855601CC4B2142CF4DB72
:103BF000002404E0002008490855601CC4B2082CC9
:103C0000F8DB40F2DC50FFF771FE10BD4F030020DF
:103C10009F030020EF030020560000202DE9F04113
:103C200007460C460F48047021463846FFF7BEFF92
:103C300090B901200C4908600C4805780C480678BA
:103C40002146384600F032F80121202000F082FAA7
:103C50002946304600F02AF8002002490870BDE8E5
:103C6000F081000052000020600000205000002081
:103C7000510000202DE9F04107460D461446002C66
:103C800003DA132C01DDBDE8F081002607E006A26F
:103C90002946384600F062F8681CC5B2761CA64278
:103CA000F5DB00BFEFE700002000000070B5044620
:103CB0000D4644B945F08000002100F023FA0120B0
:103CC000FCF712FE28E0012C0BD105F14001C9B22E
:103CD00041F08000002100F015FA0120FCF704FEFD
:103CE0001AE0022C0BD105F11401C9B241F0800099
:103CF000002100F007FA0120FCF7F6FD0CE0032C90
:103D00000AD105F15401C9B241F08000002100F050
:103D1000F9F90120FCF7E8FD02480570024804703B
:103D200070BD00005000002051000020F8B504468E
:103D30000D46164600200090324607A16846FEF761
:103D400049FF29462046FFF7B1FF6A46294620462B
:103D500000F004F8F8BD0000256400002DE9F041F2
:103D600080460E461446002531464046FFF71EFFAA
:103D7000012802D100264FF0000831464046FFF7E7
:103D800095FF1748067000200BE0215C11B915491A
:103D9000086008E0132803D11421124A116002E0E0
:103DA000401C1428F1DB00BF00250EE0675D681C95
:103DB000205C20B90121384600F0CCF908E0002150
:103DC000384600F0C7F9681CC5B2605D0028EDD127
:103DD00000BF00200249087002490860BDE8F08178
:103DE000520000206000002010B5FFF7A5FD0C492F
:103DF0000860084600680B490968884200D110BD78
:103E000007210020FFF70AFF05480521026800206E
:103E1000FFF78CFF024800680249086000BFEEE728
:103E2000480000204C00002010B5614800680728B9
:103E30007AD2DFE800F0BA042439597A9A000F22C6
:103E40000E210020FFF716FF5AA201210020FFF7E4
:103E500085FF5AA209210020FFF780FF59480E2153
:103E600002680020FFF762FF102200210120FFF707
:103E700001FF55A200210120FFF770FF96E00F22FD
:103E800009210020FFF7F6FE102200210120FFF794
:103E9000F1FE48A201210020FFF760FF4EA20021A1
:103EA0000120FFF75BFF81E00F220E210020FFF7CA
:103EB000E1FE40A201210020FFF750FF3FA20921AF
:103EC0000020FFF74BFF3F480E2102680020FFF75C
:103ED0002DFF102200210120FFF7CCFE42A200217D
:103EE0000120FFF73BFF61E00F220E210020FFF7CA
:103EF000C1FE30A201210020FFF730FF2FA20921CF
:103F00000020FFF72BFF2F480E2102680020FFF74B
:103F10000DFF102200210120FFF7ACFE37A2002187
:103F20000120FFF71BFF41E03FE00F220E210020A0
:103F3000FFF7A0FE1FA201210020FFF70FFF1FA225
:103F400009210020FFF70AFF1E480E210268002009
:103F5000FFF7ECFE102200210120FFF78BFE2CA2C0
:103F600000210120FFF7FAFE20E00F220E210020A1
:103F7000FFF780FE0FA201210020FFF7EFFE0FA246
:103F800009210020FFF7EAFE0E480E2102680020FA
:103F9000FFF7CCFE102200210120FFF76BFE1FA2CD
:103FA00000210120FFF7DAFE00E000BF00BF10BDD6
:103FB00040000020DFF0EA3A00000000D1EAEEF015
:103FC0003A0000003C000020C1E5E3F3F9E0FF20E7
:103FD0003120E82030000000C2F1E520E3EEF0FFE0
:103FE000F220EFEEF1F22E00C2F1E520ECE8E32E34
:103FF00020EEE4EDEEE2F02E00000000CCE8E32E2F
:10400000312D342D382D31322D31362B000000006A
:10401000C1E5E3F3F9E0FF2031000000D0E5E6E878
:10402000EC20C4C5CCCE000070B5054602F07CFF84
:10403000002408E014202C4908552C4908552C4927
:104040000855601CC4B2142CF4DB002404E00020EA
:1040500028490855601CC4B2082CF8DB0820264902
:104060000870264805709620FCF73EFC0020244985
:1040700008700846007820F001000A4610700146DA
:104080001E480078FEF770F93220FFF72FFC1C481D
:10409000007820F002001A4A107001461748007894
:1040A000FEF762F93220FFF721FC1548007840F056
:1040B0000800134A1070014610480078FEF754F9C2
:1040C000302000F0BDF8022000F0BAF80C2000F01B
:1040D000B7F8012000F0B4F8802000F0B1F8C0205B
:1040E00000F0AEF870BD00004F0300209F030020D9
:1040F000EF03002056000020540000205300002051
:104100005500002070B504460D46002626115DB905
:104110000E48007820F001000C4A107001460C484F
:104120000078FEF721F90AE00848007840F0010025
:10413000064A1070014606480078FEF715F9304629
:1041400000F07EF8204600F07BF870BD550000209E
:10415000530000202DE9F04106460D460027304669
:1041600002F094FE31480078401C30490870012D5F
:1041700059D12F48007860B92E4801782C48007832
:10418000FFF794FD2B4807784FF4FA70FFF7AEFB6A
:1041900037E02748007801280ED1264801782448C6
:1041A0000078FFF783FD4FF4FA70FFF79FFB21487B
:1041B000007800F1140724E01D48007802280ED191
:1041C0001C4801781A480078FFF770FD4FF4FA7028
:1041D000FFF78CFB1748007800F1280711E014481E
:1041E000007803280DD11348017811480078FFF7B3
:1041F0005DFD4FF4FA70FFF779FB0E48007800F18F
:104200003C07002407E0E1190B4A505C0121FFF74D
:1042100079FF601CC4B2094800688442F3DB502176
:104220000548FBF7F4FFBDE8F081000050000020D6
:1042300051000020520000204F03002060000020A9
:1042400010B504462007040E1D48007820F0040035
:104250001B4A107001461B480078FEF785F80220C3
:10426000FFF744FB1648007800F00F00144908706F
:104270000846007820430870084601781148007805
:10428000FEF772F80E48007840F004000C4A1070F7
:1042900001460C480078FEF767F80220FFF726FB7E
:1042A0000748007820F00400054A107001460548D0
:1042B0000078FEF759F86420FFF718FB10BD0000E6
:1042C00055000020530000202DE9F04106460C4621
:1042D000072C00DD0724402040EAC400C7B20025B7
:1042E00010E038467A1CD7B20021FFF70BFF06EB2F
:1042F000C601094A1144491C485D0121FFF702FF2C
:10430000681CC5B2082DECDB04480178044800782D
:10431000FFF7CCFCBDE8F0814C01002050000020EC
:104320005100002010B509E201222021FB48FCF7D2
:1043300057FDFFF7EDFB0446FFF796FA00B110BDFD
:1043400000222021F548FCF74BFDFFF7E1FB044676
:10435000FFF78AFA00B1F2E70122D103F048FCF737
:104360003FFDFFF7D5FB0446FFF77EFA00B1E6E715
:1043700000224FF40041EA48FCF732FDFFF7C8FB8A
:104380000446FFF771FA00B1D9E701229103E3482F
:10439000FCF726FDFFF7BCFB0446FFF765FA00B10A
:1043A000CDE700224FF48041DC48FCF719FDFFF710
:1043B000AFFB0446FFF758FA00B1C0E701229102B3
:1043C000D648FCF70DFDFFF7A3FB0446FFF74CFAB8
:1043D00000B1B4E700224FF48061D048FCF700FD43
:1043E000FFF796FB0446FFF73FFA00B1A7E701226B
:1043F0004021CB48FCF7F4FCFFF78AFB0446FFF7AB
:1044000033FA00B19BE700224021C548FCF7E8FCE5
:10441000FFF77EFB0446FFF727FA00B18FE7012282
:104420001021BE48FCF7DCFCFFF772FB0446FFF7E7
:104430001BFA00B183E700221021B848FCF7D0FC3A
:10444000FFF766FB0446FFF70FFA00B177E701229A
:104450001103B348FCF7C4FCFFF75AFB0446FFF70F
:1044600003FA00B16BE700224FF48051AC48FCF72F
:10447000B7FCFFF74DFB0446FFF7F6F900B15EE726
:1044800001225103A548FCF7ABFCFFF741FB0446B2
:10449000FFF7EAF900B152E700224FF400519F48BC
:1044A000FCF79EFCFFF734FB0446FFF7DDF900B193
:1044B00045E7012202219948FCF792FCFFF728FB0F
:1044C0000446FFF7D1F900B139E7002202219348F1
:1044D000FCF786FCFFF71CFB0446FFF7C5F900B1AB
:1044E0002DE7012208218D48FCF77AFCFFF710FB2D
:1044F0000446FFF7B9F900B121E7002208218748F7
:10450000FCF76EFCFFF704FB0446FFF7ADF900B1C2
:1045100015E70122D1028248FCF762FCFFF7F8FAA6
:104520000446FFF7A1F900B109E700224FF400614A
:104530007B48FCF755FCFFF7EBFA0446FFF794F9CC
:1045400000B1FCE6012211037448FCF749FCFFF7B7
:10455000DFFA0446FFF788F900B1F0E600224FF4D5
:1045600080516E48FCF73CFCFFF7D2FA0446FFF797
:104570007BF900B1E3E6012202216948FCF730FC37
:10458000FFF7C6FA0446FFF76FF900B1D7E600223D
:1045900002216348FCF724FCFFF7BAFA0446FFF750
:1045A00063F900B1CBE60122D1035D48FCF718FCAA
:1045B000FFF7AEFA0446FFF757F900B1BFE6002255
:1045C0004FF400415648FCF70BFCFFF7A1FA0446F4
:1045D000FFF74AF900B1B2E60122D1034F48FCF7D8
:1045E000FFFBFFF795FA0446FFF73EF900B1A6E698
:1045F00000224FF400414948FCF7F2FBFFF788FA2C
:104600000446FFF731F900B199E60122D10243488F
:10461000FCF7E6FBFFF77CFA0446FFF725F900B14B
:104620008DE600224FF400613C48FCF7D9FBFFF710
:104630006FFA0446FFF718F900B180E601228021E5
:104640003748FCF7CDFBFFF763FA0446FFF70CF998
:1046500000B174E6002280213148FCF7C1FBFFF76E
:1046600057FA0446FFF700F900B168E6012211038A
:104670002B48FCF7B5FBFFF74BFA0446FFF7F4F8BD
:1046800000B15CE600224FF480512548FCF7A8FBFE
:10469000FFF73EFA0446FFF7E7F800B14FE60122C4
:1046A00091031E48FCF79CFBFFF732FA0446FFF724
:1046B000DBF800B143E600224FF480411748FCF7D5
:1046C0008FFBFFF725FA0446FFF7CEF800B136E678
:1046D000012291021148FCF783FBFFF719FA044607
:1046E000FFF7C2F800B12AE600224FF480610B48C0
:1046F000FCF776FBFFF70CFA0446FFF7B5F800B1BC
:104700001DE6012240210648FCF76AFBFFF700FA8C
:104710000446FFF7A9F828B111E60000000C01409B
:1047200000080140002240210548FCF759FBFFF733
:10473000EFF90446FFF798F800B100E6F4E5000051
:104740000008014010B5B6E0012220215A48FCF7CC
:1047500047FB012210215848FCF742FB01220821A7
:104760005548FCF73DFB0122D1035448FCF738FBC8
:10477000012211035148FCF733FB0122D1024F48BB
:10478000FCF72EFB0122D1034B48FCF729FB012249
:1047900091034948FCF724FB012251034648FCF7EA
:1047A0001FFB012211034448FCF71AFB0122D1022E
:1047B0004148FCF715FB012291023F48FCF710FB32
:1047C000012202213C48FCF70BFB012202213B485D
:1047D000FCF706FB012280213848FCF701FB01228F
:1047E00040213648FCF7FCFAFFF792F90446FFF740
:1047F00025F800B110BD002220212F48FCF7F0FA67
:10480000002210212C48FCF7EBFA002208212A484C
:10481000FCF7E6FA00224FF400412848FCF7E0FAE2
:1048200000224FF480512548FCF7DAFA00224FF4B9
:1048300000612248FCF7D4FA00224FF400411E48E0
:10484000FCF7CEFA00224FF480411B48FCF7C8FA6F
:1048500000224FF400511848FCF7C2FA00224FF42E
:1048600080511548FCF7BCFA00224FF40061124851
:10487000FCF7B6FA00224FF480610F48FCF7B0FA5B
:10488000002202210C48FCF7ABFA002202210B485F
:10489000FCF7A6FA002280210848FCF7A1FA0022C2
:1048A00040210648FCF79CFAFFF732F90446FEF770
:1048B000C5FF00B19EE747E7000C0140000801403A
:1048C0001CB500F05CBE0020019084E10122202193
:1048D000FE48FCF785FAFFF71BF90090FEF7F0FFA2
:1048E00000B11CBD01221021F848FCF779FAFFF74E
:1048F0000FF90090FEF7E4FF00B1F2E70122082172
:10490000F248FCF76DFAFFF703F90090FEF7D8FFC5
:1049100000B1E6E70122D103ED48FCF761FAFFF7A9
:10492000F7F80090FEF7CCFF00B1DAE7012211039F
:10493000E748FCF755FAFFF7EBF80090FEF7C0FFE9
:1049400000B1CEE70122D102E148FCF749FAFFF7B6
:10495000DFF80090FEF7B4FF00B1C2E70122D103F7
:10496000DA48FCF73DFAFFF7D3F80090FEF7A8FF0E
:1049700000B1B6E701229103D448FCF731FAFFF702
:10498000C7F80090FEF79CFF00B1AAE7012251038F
:10499000CE48FCF725FAFFF7BBF80090FEF790FF32
:1049A00000B19EE701221103C848FCF719FAFFF78E
:1049B000AFF80090FEF784FF00B192E70122D10228
:1049C000C248FCF70DFAFFF7A3F80090FEF778FF56
:1049D00000B186E701229102BC48FCF701FAFFF71B
:1049E00097F80090FEF76CFF00B17AE701220221F0
:1049F000B648FCF7F5F9FFF78BF80090FEF760FF7B
:104A000000B16EE701220221B148FCF7E9F9FFF796
:104A10007FF80090FEF754FF00B162E70122802189
:104A2000AB48FCF7DDF9FFF773F80090FEF748FF9D
:104A300000B156E701224021A548FCF7D1F9002238
:104A40002021A248FCF7CCF9FFF762F80090FEF7AE
:104A500037FF00B145E7002210219C48FCF7C0F960
:104A6000FFF756F80090FEF72BFF00B139E7002260
:104A700008219648FCF7B4F9FFF74AF80090FEF7D2
:104A80001FFF00B12DE700224FF400419048FCF7D2
:104A9000A7F9FFF73DF80090FEF712FF00B120E7FD
:104AA00000224FF480518A48FCF79AF9FFF730F85A
:104AB0000090FEF705FF00B113E700224FF40061FC
:104AC0008348FCF78DF9FFF723F80090FEF7F8FE16
:104AD00000B106E700224FF400417C48FCF780F962
:104AE000FFF716F80090FEF7EBFE00B1F9E60022A2
:104AF0004FF480417548FCF773F9FFF709F800900F
:104B0000FEF7DEFE00B1ECE600224FF400516F48E4
:104B1000FCF766F9FEF7FCFF0090FEF7D1FE00B14E
:104B2000DFE600224FF480516848FCF759F9FEF7A0
:104B3000EFFF0090FEF7C4FE00B1D2E600224FF472
:104B400000616248FCF74CF9FEF7E2FF0090FEF7C7
:104B5000B7FE00B1C5E600224FF480615B48FCF768
:104B60003FF9FEF7D5FF0090FEF7AAFE00B1B8E6C8
:104B7000002202215548FCF733F9FEF7C9FF0090E7
:104B8000FEF79EFE00B1ACE6002202215048FCF781
:104B900027F9FEF7BDFF0090FEF792FE00B1A0E6F8
:104BA000002280214A48FCF71BF9FEF7B1FF009074
:104BB000FEF786FE00B194E6002240214448FCF74F
:104BC0000FF9FEF7A5FF0090FEF77AFE00B188E628
:104BD0000198401C019001980528FFF677AE00F07F
:104BE000D5FC012220213948FCF7FAF801221021D6
:104BF0003648FCF7F5F8012208213448FCF7F0F8B4
:104C00000122D1033248FCF7EBF8012211033048AE
:104C1000FCF7E6F80122D1022D48FCF7E1F8012269
:104C2000D1032A48FCF7DCF8012291032748FCF75E
:104C3000D7F8012251032548FCF7D2F801221103CD
:104C40002248FCF7CDF80122D1022048FCF7C8F831
:104C5000012291021D48FCF7C3F8012202211B48E2
:104C6000FCF7BEF8012202211948FCF7B9F801222D
:104C700080211748FCF7B4F8012240211448FCF7C2
:104C8000AFF841F2883001F076F800F07FFC0020A8
:104C90000190BEE0012220210C48FCF7A1F801227E
:104CA00010210A48FCF79CF8012208210748FCF76C
:104CB00097F80122D1030648FCF792F8012211036C
:104CC0000348FCF78DF80122D10203E0000C0140FB
:104CD00000080140F948FCF783F80122D103F848A5
:104CE000FCF77EF801229103F548FCF779F80122E0
:104CF0005103F348FCF774F801221103F048FCF764
:104D00006FF80122D102EE48FCF76AF80122910205
:104D1000EB48FCF765F801220221E948FCF760F84E
:104D200001220221E548FCF75BF801228021E348DB
:104D3000FCF756F801224021E048FCF751F8FEF755
:104D4000E7FE0090FEF7BCFD00B1CAE5002220217D
:104D5000DB48FCF745F800221021D948FCF740F861
:104D600000220821D648FCF73BF800224FF400410E
:104D7000D248FCF735F800224FF48051CF48FCF7B9
:104D80002FF800224FF40061CC48FCF729F80022EC
:104D90004FF40041CA48FCF723F800224FF4804149
:104DA000C748FCF71DF800224FF40051C448FCF737
:104DB00017F800224FF48051C148FCF711F8002287
:104DC0004FF40061BE48FCF70BF800224FF48061FD
:104DD000BB48FCF705F800220221B948FCF700F8AF
:104DE00000220221B548FBF7FBFF00228021B348D7
:104DF000FBF7F6FF00224021B048FBF7F1FFFEF77A
:104E000087FE0090FEF75CFD00B16AE50198401C4A
:104E1000019001980528FFF63DAF00F0B7FB002098
:104E200001900CE201222021A548FBF7D9FFFEF7F3
:104E30006FFE0090FEF744FD00B152E500222021F4
:104E40009F48FBF7CDFFFEF763FE0090FEF738FDAD
:104E500000B146E50122D1039848FBF7C1FFFEF7F8
:104E600057FE0090FEF72CFD00B13AE500224FF40A
:104E700000419248FBF7B4FFFEF74AFE0090FEF7B0
:104E80001FFD00B12DE5012291038D48FBF7A8FF1E
:104E9000FEF73EFE0090FEF713FD00B121E5002273
:104EA0004FF480418648FBF79BFFFEF731FE0090F0
:104EB000FEF706FD00B114E5012291028048FBF7E0
:104EC0008FFFFEF725FE0090FEF7FAFC00B108E523
:104ED00000224FF480617A48FBF782FFFEF718FE4C
:104EE0000090FEF7EDFC00B1FBE401224021734885
:104EF000FBF776FFFEF70CFE0090FEF7E1FC00B139
:104F0000EFE4002240216D48FBF76AFFFEF700FE48
:104F10000090FEF7D5FC00B1E3E4012210216848BF
:104F2000FBF75EFFFEF7F4FD0090FEF7C9FC00B151
:104F3000D7E4002210216248FBF752FFFEF7E8FD9C
:104F40000090FEF7BDFC00B1CBE4012211035B48E9
:104F5000FBF746FFFEF7DCFD0090FEF7B1FC00B169
:104F6000BFE400224FF480515448FBF739FFFEF7AD
:104F7000CFFD0090FEF7A4FC00B1B2E40122510382
:104F80004F48FBF72DFFFEF7C3FD0090FEF798FC9E
:104F900000B1A6E400224FF400514948FBF720FF7E
:104FA000FEF7B6FD0090FEF78BFC00B199E40122FC
:104FB00002214348FBF714FFFEF7AAFD0090FEF71D
:104FC0007FFC00B18DE4002202213D48FBF708FF81
:104FD000FEF79EFD0090FEF773FC00B181E4012214
:104FE00008213748FBF7FCFEFEF792FD0090FEF724
:104FF00067FC00B175E4002208213148FBF7F0FEA0
:10500000FEF786FD0090FEF75BFC00B169E401222B
:10501000D1022A48FBF7E4FEFEF77AFD0090FEF786
:105020004FFC00B15DE400224FF400612348FBF720
:10503000D7FEFEF76DFD0090FEF742FC00B150E494
:10504000012211031E48FBF7CBFEFEF761FD009025
:10505000FEF736FC00B144E400224FF480511848BA
:10506000FBF7BEFEFEF754FD0090FEF729FC00B1F1
:1050700037E4012202211148FBF7B2FEFEF748FD9A
:105080000090FEF71DFC00B12BE4002202210B482A
:10509000FBF7A6FEFEF73CFD0090FEF711FC00B109
:1050A0001FE40122D1030548FBF79AFEFEF730FD0D
:1050B0000090FEF705FC28B113E400000008014051
:1050C000000C014000224FF40041FC48FBF788FE31
:1050D000FEF71EFD0090FEF7F3FB00B101E4012294
:1050E000D103F748FBF77CFEFEF712FD0090FEF7B8
:1050F000E7FB00B10DE400224FF40041F048FBF75C
:105100006FFEFEF705FD0090FEF7DAFB00B10CE440
:105110000122D102EA48FBF763FEFEF7F9FC00909A
:10512000FEF7CEFB00B10CE400224FF40061E4482E
:10513000FBF756FEFEF7ECFC0090FEF7C1FB00B15A
:105140000BE401228021DD48FBF74AFEFEF7E0FC7C
:105150000090FEF7B5FB00B10BE400228021D74898
:10516000FBF73EFEFEF7D4FC0090FEF7A9FB00B172
:105170000BE401221103D148FBF732FEFEF7C8FC15
:105180000090FEF79DFB00B10BE400224FF480512C
:10519000CA48FBF725FEFEF7BBFC0090FEF790FB2C
:1051A00000B10AE401229103C548FBF719FEFEF79E
:1051B000AFFC0090FEF784FB00B10AE400224FF43C
:1051C0008041BF48FBF70CFEFEF7A2FC0090FEF703
:1051D00077FB00B109E401229102B948FBF700FE18
:1051E000FEF796FC0090FEF76BFB00B109E400228D
:1051F0004FF48061B248FBF7F3FDFEF789FC0090A5
:10520000FEF75EFB00B108E401224021AB48FBF74A
:10521000E7FDFEF77DFC0090FEF752FB00B108E4CD
:1052200000224021A548FBF7DBFDFEF771FC009052
:10523000FEF746FB00B10DE40198401C0190019877
:105240000528FFF6EFAD00F0A1F90020019090E1F4
:10525000012220219A48FBF7C3FDFEF759FC00907C
:10526000FEF72EFB00B10DE4002220219448FBF74D
:10527000B7FDFEF74DFC0090FEF722FB00B10EE4F7
:10528000012210218E48FBF7ABFDFEF741FC009098
:10529000FEF716FB00B10FE4002210218848FBF74F
:1052A0009FFDFEF735FC0090FEF70AFB00B110E40D
:1052B000012208218248FBF793FDFEF729FC0090AC
:1052C000FEF7FEFA00B104E4002208217C48FBF757
:1052D00087FDFEF71DFC0090FEF7F2FA00B105E431
:1052E0000122D1037548FBF77BFDFEF711FC00900E
:1052F000FEF7E6FA00B106E400224FF400416F48E1
:10530000FBF76EFDFEF704FC0090FEF7D9FA00B142
:1053100006E4012211036948FBF762FDFEF7F8FB82
:105320000090FEF7CDFA00B107E400224FF480515F
:105330006248FBF755FDFEF7EBFB0090FEF7C0FA65
:1053400000B107E40122D1025C48FBF749FDFEF7FA
:10535000DFFB0090FEF7B4FA00B108E400224FF43E
:1053600000615648FBF73CFDFEF7D2FB0090FEF7CC
:10537000A7FA00B107E40122D1035148FBF730FD41
:10538000FEF7C6FB0090FEF79BFA00B107E400228F
:105390004FF400414A48FBF723FDFEF7B9FB0090AC
:1053A000FEF78EFA00B106E4012291034448FBF7B0
:1053B00017FDFEF7ADFB0090FEF782FA00B106E4A0
:1053C00000224FF480413E48FBF70AFDFEF7A0FBA8
:1053D0000090FEF775FA00B1B7E401225103384896
:1053E000FBF7FEFCFEF794FB0090FEF769FA00B1B4
:1053F000ABE400224FF400513148FBF7F1FCFEF71B
:1054000087FB0090FEF75CFA00B19EE401221103D5
:105410002B48FBF7E5FCFEF77BFB0090FEF750FA0C
:1054200000B192E400224FF480512548FBF7D8FCEC
:10543000FEF76EFB0090FEF743FA00B185E401220F
:10544000D1021F48FBF7CCFCFEF762FB0090FEF791
:1054500037FA00B179E400224FF400611848FBF7F5
:10546000BFFCFEF755FB0090FEF72AFA00B16CE492
:10547000012291021248FBF7B3FCFEF749FB0090B2
:10548000FEF71EFA00B160E400224FF480610C4880
:10549000FBF7A6FCFEF73CFB0090FEF711FA00B10B
:1054A00053E4012202210648FBF79AFCFEF730FB89
:1054B0000090FEF705FA28B147E40000000801401B
:1054C000000C0140002202212E48FBF789FCFEF768
:1054D0001FFB0090FEF7F4F900B136E4012202212F
:1054E0002948FBF77DFCFEF713FB0090FEF7E8F977
:1054F00000B12AE4002202212348FBF771FCFEF7E9
:1055000007FB0090FEF7DCF900B11EE401228021C8
:105510001D48FBF765FCFEF7FBFA0090FEF7D0F99B
:1055200000B112E4002280211748FBF759FCFEF776
:10553000EFFA0090FEF7C4F900B106E40122402121
:105540001148FBF74DFCFEF7E3FA0090FEF7B8F9BF
:1055500000B15AE4002240210B48FBF741FCFEF762
:10556000D7FA0090FEF7ACF900B14EE40198401C68
:10557000019001980528FFF66BAE00F007F8FFF7E1
:10558000A2B90000000C01400008014010B5002243
:1055900020212C48FBF724FC002210212948FBF78E
:1055A0001FFC002208212748FBF71AFC00224FF4B9
:1055B00000412548FBF714FC00224FF4805122489B
:1055C000FBF70EFC00224FF400611F48FBF708FCBC
:1055D00000224FF400411B48FBF702FC00224FF46D
:1055E00080411848FBF7FCFB00224FF4005115489E
:1055F000FBF7F6FB00224FF480511248FBF7F0FB5B
:1056000000224FF400610F48FBF7EAFB00224FF441
:1056100080610C48FBF7E4FB002202210948FBF7FC
:10562000DFFB002202210848FBF7DAFB0022802181
:105630000548FBF7D5FB002240210348FBF7D0FBD0
:1056400010BD0000000C01400008014010B552E000
:10565000012220212B48FBF7C3FB012210212948FE
:10566000FBF7BEFB012208212648FBF7B9FB01220C
:10567000D1032548FBF7B4FB012211032248FBF7B5
:10568000AFFB0122D1022048FBF7AAFB0122D10384
:105690001C48FBF7A5FB012291031A48FBF7A0FB6E
:1056A000012251031748FBF79BFB01221103154808
:1056B000FBF796FB0122D1021248FBF791FB012276
:1056C00091021048FBF78CFB012202210D48FBF7E9
:1056D00087FB012202210C48FBF782FB012280217B
:1056E0000948FBF77DFB012240210748FBF778FBC7
:1056F000142000F040FB05480068FEF70FFA002870
:10570000A6D110BD000C014000080140B4000020EB
:1057100010B581E101222021C048FBF761FBFEF7B3
:10572000F7F90446FEF774F800B110BD012210210C
:10573000BA48FBF755FBFEF7EBF90446FEF768F8AD
:1057400000B1F2E701220821B448FBF749FBFEF75C
:10575000DFF90446FEF75CF800B1E6E70122D10369
:10576000AF48FBF73DFBFEF7D3F90446FEF750F8D0
:1057700000B1DAE701221103A948FBF731FBFEF77C
:10578000C7F90446FEF744F800B1CEE70122D10282
:10579000A348FBF725FBFEF7BBF90446FEF738F8F4
:1057A00000B1C2E70122D1039C48FBF719FBFEF7C9
:1057B000AFF90446FEF72CF800B1B6E701229103D9
:1057C0009648FBF70DFBFEF7A3F90446FEF720F819
:1057D00000B1AAE7012251039048FBF701FBFEF755
:1057E00097F90446FEF714F800B19EE70122110371
:1057F0008A48FBF7F5FAFEF78BF90446FEF708F83E
:1058000000B192E70122D1028448FBF7E9FAFEF7E2
:105810007FF90446FDF7FCFF00B186E70122910203
:105820007E48FBF7DDFAFEF773F90446FDF7F0FF5B
:1058300000B17AE7012202217848FBF7D1FAFEF79E
:1058400067F90446FDF7E4FF00B16EE7012202218B
:105850007348FBF7C5FAFEF75BF90446FDF7D8FF7E
:1058600000B162E7012280216D48FBF7B9FAFEF72B
:105870004FF90446FDF7CCFF00B156E70122402165
:105880006748FBF7ADFA002220216448FBF7A8FA2D
:10589000FEF73EF90446FDF7BBFF00B145E70022E5
:1058A00010215E48FBF79CFAFEF732F90446FDF73B
:1058B000AFFF00B139E7002208215848FBF790FA02
:1058C000FEF726F90446FDF7A3FF00B12DE70022FD
:1058D0004FF400415248FBF783FAFEF719F90446EA
:1058E000FDF796FF00B120E700224FF480514C48AD
:1058F000FBF776FAFEF70CF90446FDF789FF00B1D5
:1059000013E700224FF400614548FBF769FAFEF700
:10591000FFF80446FDF77CFF00B106E700224FF4D4
:1059200000413E48FBF75CFAFEF7F2F80446FDF74B
:105930006FFF00B1F9E600224FF480413748FBF7D2
:105940004FFAFEF7E5F80446FDF762FF00B1ECE61A
:1059500000224FF400513148FBF742FAFEF7D8F825
:105960000446FDF755FF00B1DFE600224FF48051F9
:105970002A48FBF735FAFEF7CBF80446FDF748FF57
:1059800000B1D2E600224FF400612448FBF728FA68
:10599000FEF7BEF80446FDF73BFF00B1C5E6002266
:1059A0004FF480611D48FBF71BFAFEF7B1F804467F
:1059B000FDF72EFF00B1B8E6002202211748FBF7E1
:1059C0000FFAFEF7A5F80446FDF722FF00B1ACE69A
:1059D000002202211248FBF703FAFEF799F8044669
:1059E000FDF716FF00B1A0E6002280210C48FBF76E
:1059F000F7F9FEF78DF80446FDF70AFF00B194E6CB
:105A0000002240210648FBF7EBF9FEF781F8044637
:105A1000FDF7FEFE00B188E67CE60000000C0140C8
:105A20000008014010B588E101222021C348FBF79E
:105A3000D7F9FEF76DF80446FDF72CFF00B110BD55
:105A400000222021BD48FBF7CBF9FEF761F80446A0
:105A5000FDF720FF00B1F2E701221021B748FBF764
:105A6000BFF9FEF755F80446FDF714FF00B1E6E76D
:105A700000221021B148FBF7B3F9FEF749F80446BC
:105A8000FDF708FF00B1DAE701220821AB48FBF778
:105A9000A7F9FEF73DF80446FDF7FCFE00B1CEE79E
:105AA00000220821A548FBF79BF9FEF731F80446D0
:105AB000FDF7F0FE00B1C2E70122D103A048FBF7D9
:105AC0008FF9FEF725F80446FDF7E4FE00B1B6E7CE
:105AD00000224FF400419A48FBF782F9FEF718F8CC
